S00C000050574D312E73726563F3
S11300000004FE1FA1100000890F0000B1100000C1
S1130010B1100000B1100000B1100000B1100000D8
S1130020000000000000000000000000B11000000B
S1130030B110000000000000B1100000B110000079
S113004003000000500000000700000074000000DE
S113005000000090000000900001000D2004FE1F2D
S1130060A404FE1F00000003A404FE1FA404FE1F3A
S113007000000003000000900000009000000060F9
S113008000010C0D000000900000009000001040E2
S11300900001020D000000900000009040040000E8
S11300A00001010D0000FE1F0000FE1F00000060A3
S11300B000010C030000FE1F0000FE1F00001040A2
S11300C0000002030000FE1F0000FE1F40040000A9
S11300D000000103A404FE1FA404FE1F400400004A
S10700E00000010314
S1070400FFFFFFFFF8
S1070404FFFDFFFFF6
S113044080B56F4684B041F20830C0F20000D0F8A5
S11304500890D0E90081D9F800204046904700B1C7
S1130460FEE7D9F8242001A94046904708B100BF0F
S1130470FEE7D9F804104046884700B1FEE7DDF8EE
S11304800CB048F21F50C5F2EB10ABFB00014E0953
S11304904FF0000A012400250EE000BFB5424FF0E2
S11304A00004A5EB060598BF012438BF55460A2071
S11304B04FF47A7100F022FDD9F81C3040462946E9
S11304C001229847E007E9D0354400245D4534BF54
S11304D001245D46EBE7D4D4022818BF704740F2EC
S11304E0204041F26C51C1F6FE70C0F2000100F0F0
S11304F007B8D4D480B56F46FFF7A2FF002080BDB3
S113050080B56F4645F25422C5F24F020260084698
S113051000F002F8002080BDF0B503AF4DF804BD33
S1130520044600F05FF840F27C4CEFF310800121A8
S113053081F31088C1F6FE7CDCF8001039B940F66E
S11305400351C4F2040100220A7040220A70DCF84C
S113055000100131CCF8001080F31088208820B3FB
S113056040F6000E0021C4F2040E07E00EEB8010EA
S113057040F8223020880131814216D2606800EBB5
S1130580C102928850F83130100ADD03D2B2EDD5A1
S11305900EEB801555F8226026F4803645F822606B
S11305A023F4803645F82260E0E7EFF31081012060
S11305B080F31088DCF8000020B1DCF8000001387A
S11305C0CCF80000DCF8000038B940F60350C4F25F
S11305D00400002202708022027081F310885DF80A
S11305E004BBF0BDF0B503AF2DE9000F81B00446A4
S11305F00088002861D044F240084EF2BB4941F221
S1130600785BC4F204080026C4F20109C0F2000BAE
S113061004E000BF2088013686424ED2002508E05F
S113062008F81500C820012100F068FC0135032DED
S1130630F0D060683BF8152000EBC6018988914230
S1130640F4D150F8360099F80010012200F0B850A7
S113065002FA05FAB0F1807F0AEA010016D158B90E
S1130660012000F0F5FC99F8000040EA0A0089F83E
S11306700000012000F0C0FC18F915000028D5D4B2
S113068018F8150040F08000CAE700BF58B10120F7
S113069000F0DEFC99F8000020EA0A0089F8000066
S11306A0012000F0A9FC18F91500B0F1FF3FBDDCF2
S11306B018F8150000F07F00B2E701B0BDE8000FA4
S11306C0F0BDD4D4F0B503AF4DF8048D0A7C0123FA
S11306D004460D2A4FF0000003FA02F288BF0120FD
S11306E0E26061602074087C48F20002C4F20702F0
S11306F002EB0020A06048694FF0000E60618A6937
S11307006FF04000C4E906E2CE69EFF3108283F390
S113071010880B7C082B47F20803C4F204031D68FD
S113072038BF6FF0200028401860186882F31088E2
S1130730207B00070FD04BF20203EFF3108001225D
S113074082F31088C4F20703A2891D8825EA0202F5
S11307501A8080F31088A0684FF425420260A068D4
S11307604FF0FE42C0F82CE0A068C0F83CE0A0685E
S1130770C0F848E0087A4B6802EAC0500A78032AB5
S1130780A26808BF00F58030D062A0684FF0004234
S11307900261A0684261A0688261A068C0F824E098
S11307A0A068C0F828E0B069A268D061F069A268C6
S11307B01062A0685A1E8266A06842660A78D6F85B
S11307C038C0012A06D042B948684FF0FF3202EB24
S11307D0500338E04FF0FF3335E0A268CB68906EE9
S11307E0002B00F1010018BF98422BD8526B6568AA
S11307F002F0100E02F00C022D78043AB2FA82F2E2
S11308005209032D40F200054FF0010888BF88EA21
S11308101E12C0F20335002A40F2000E1CBF002550
S1130820C0F202259842C0F2022E84BF0025C0F215
S11308300335002A18BFAE46002B18BFAE464FF052
S1130840FF3300E0013BA0684365A0688365087836
S1130850042803D3A068C365A0680366B06B98BB83
S11308603078A8B10A787378022A03D0032A03D116
S1130870032205E0092203E00922002B08BF062217
S1130880180140EA8310104440EA0C0040F4807CD4
S1130890B078C8B10A78F378022A04D0032A05D1C3
S11308A04FF4403208E04FF4102205E04FF41022D8
S11308B0002B08BF4FF4C022180540EA83501044AF
S11308C040EA0C0040F0807C6068C36993F83020F3
S11308D0D00705D0986AA2680138D06493F8302014
S11308E0900703D5D86AA26801381065087C0728E8
S11308F002D8A06800224264A06800228263A06833
S1130900C0F88820B06B40B996F8200096F82120F2
S1130910400340EA42704CEA000C96F830004FF471
S1130920A0020028A06808BF4FF4AA020264087855
S1130930012804D1A0680022C264A0680265A068EE
S11309404EF00302C0F834C0A0680263A0684EF001
S113095001020263D4E90202C26091F91200497CE7
S1130960224600F099F996F9240096F822102246BE
S113097000F092F996F9250096F82310224600F02B
S11309808BF945F25401C0F24701002021605DF863
S1130990048BF0BDD0E9021200204A607047D4D421
S11309A0D0E9021200208A607047D4D4D0E9021240
S11309B00020CA607047D4D480B56F46D0E9011EC8
S11309C0C969D1E901C3CA6843F00043CEF81430C1
S11309D0836842F000429A6182684CF000431361DC
S11309E00A6983685A62496982680020916280BDFD
S11309F081684FF000420A6181684A6181688A61B6
S1130A00816800224A62816800208A627047D4D4D7
S1130A1083684A1E9A6643681B783BB94FF0FF3CD3
S1130A2083680CEB51015965836899658168CB6AC9
S1130A30DB0707D14A6681684FF4AA020A64D0E949
S1130A400201C16000207047F0B503AF4DF8048D7A
S1130A50846802F0030CA36E002903F1010318BF9C
S1130A608B4228D8D4F834E0102505EA02154668EC
S1130A702EFA05F505F0100E05F00C053678043D48
S1130A80B5FA85F56D09032E4FF003064FF0010802
S1130A9088BF88EA1E15002D18BF02268B4288BF26
S1130AA003263346002D08BF0223D4F830E0002982
S1130AB018BF334618E01507D4F830E04FF00405AA
S1130AC0A1F1010358BF0225960704F14C0404D494
S1130AD045EA0C0544F8253005E044F825308468DF
S1130AE004EB850423650023846855062AD4022A6E
S1130AF02DD163B3A26E002902F1010218BF8A420C
S1130B0025D8656B406805F4801605F44025A5F5E5
S1130B1080250078B5FA85F56D094FF001080328A2
S1130B2088BF88EA16550326002D18BF02268A427C
S1130B3088BF03263046002D08BF0220002918BFB5
S1130B40304605E0216C41F4800121648468184634
S1130B502EF4403141EA0341BCF1010F18BF8E4627
S1130B602EF04072BCF1000F18BF42EA0061002071
S1130B7021635DF8048BF0BD8068013900EB8202CB
S1130B800020D1647047D4D4826840F29043526EFE
S1130B90C1F6FE7301328A6080680E22C06A02EADE
S1130BA0D05C4EF22002C4F2010212681B68C2F348
S1130BB0026003FA00F002F00702D04020FA0CF0C1
S1130BC04860012200200A707047D4D48268D26A37
S1130BD002F001020A718068826C00200A6070478A
S1130BE08446C0E905130020CCF81C207047D4D4F7
S1130BF0D0B502AF42684EF2801C92F91210D3694C
S1130C0040F2804ECEF2000C0029C1F6FE7E10D4D4
S1130C10C9B201F01F02012404FA02F2C1F3421422
S1130C204CF82420BFF34F8F0022BFF36F8F4EF890
S1130C30212093F92410002910D4C9B201F01F0215
S1130C40012404FA02F2C1F342144CF82420BFF345
S1130C504F8F0022BFF36F8F4EF8212093F9251098
S1130C60002910D4C9B201F01F02012303FA02F2D1
S1130C70C1F342134CF82320BFF34F8F0022BFF37C
S1130C806F8F4EF82120D0E9022300210160936088
S1130C90826800205163D0BD002848BF704780B5EA
S1130CA06F464EF2001CC3B2CEF2000C4FEA011E96
S1130CB043EA0C0181F800E340F28041C1F6FE7181
S1130CC041F8232046F20031C4F2000151F82320F8
S1130CD022F4803241F8232051F8231000F01F0140
S1130CE0012202FA01F11C2202EAD00040EA0C02BD
S1130CF0BFF35F8FC2F8801140F80C1080BDD4D4CC
S1130D004EF22000C4F20100817940F200420068F2
S1130D10C1F6FE7252F82110C0F3026021FA00F00D
S1130D2040F29041C1F6FE7108607047F0B503AF20
S1130D302DE9000B4EF28045C4F201054CF200147B
S1130D404AF2035040F2004842F60051C4F2010452
S1130D5025F8820C4FF0000CC1F6FE78C0F2311178
S1130D6041F2002243F200604EF22006A4F800C0D3
S1130D70C0F27A024FF40043C0F26E1041F6004E06
S1130D8088E80E0008F10C01C4F20106C0F64E6EAC
S1130D9081E80940B079316858F82000C1F3026154
S1130DA040F29049C840C1F6FE79C9F80000092014
S1130DB005F86DCC86F88200287810B96878800729
S1130DC054D0287848B901202870C820012100F0A7
S1130DD095F800BF28780128FCD10020687028709D
S1130DE0062086F885000020B07400BF307F00071D
S1130DF0FCD542F2017030810020B072307F800651
S1130E00FCD50220207741F22120C2F2011030608B
S1130E100520B071B079316858F82000C1F302613F
S1130E20C840C9F8000042F20400C4F20000F121F5
S1130E3001700E21BFF35F8F0171F021BFF35F8F4B
S1130E40017001204021307486F8320086F83300A6
S1130E5031714FF4254125F8821CA080A088002818
S1130E60FCD101202080BDE8000BF0BD4FF47A7066
S1130E7000F002F8B4E7D4D47047D4D4B0B502AFCC
S1130E8044F22404C4F204040025C820012125717D
S1130E9000F034F8257000BF20780028FCD12078B9
S1130EA040F00200207000BF20788007FCD40020AE
S1130EB004F8020C14F8020C0028FBD1002004F101
S1130EC01C0100BF11F8102002F07F0201F810206D
S1130ED011F91020002AFBD401300328F2D101209B
S1130EE000F0B6F84EF2BB41C4F201010022012029
S1130EF00A70BDE8B04000F07FB8D4D440F290420C
S1130F00C1F6FE72126841F20023C0F27A039A42DB
S1130F1001FB00F00FD340F6FF01C0F23D01114484
S1130F204DF68362C4F21B32A1FB0212110DA0FB29
S1130F300101D9B11FE04CF6002348F63811C3F67D
S1130F409A33C0F24101B3FBF2F2884206D24FF465
S1130F507A714843B0FBF2F0800807E09200B0FBDE
S1130F60F2F0884207D24FF47A714843002808BF50
S1130F70704700F005B84FF0FF3000F001B8D4D44A
S1130F8001380028FCD17047F0B503AF2DE9000B00
S1130F9046F22018C4F20008B8F80000B8F820108F
S1130FA040F2484501EA00091FFA89F60024C1F617
S1130FB0FE7502E001340D2C0AD026FA04F0C007B5
S1130FC0F8D055F824100029F4D0E0B28847F1E7AE
S1130FD0A8F81090BDE8000BF0BDD4D441F2B45091
S1130FE0C0F20000008800281EBF46F20031C4F29F
S1130FF0000108607047D4D40122EFF3108182F31A
S1131000108840F28442C1F6FE7232F8103023B1E7
S113101032F81030013B22F8103032F8102012B1AF
S113102081F3108870474EF2FE3CC4F2010C41F289
S1131030B652BCF80030C0F2000232F8100043F49B
S1131040254222EA0000ACF8000081F310887047C2
S113105080B56F460122EFF3108182F3108840F2CD
S11310608442C1F6FE7232F810308BB94EF2FE3C67
S113107041F2B653C4F2010CC0F20003BCF800E024
S113108033F8103043EA0E0343F42543ACF8003040
S113109032F81030013322F8103081F3108880BD0B
S11310A080B56F4600F006F8FFF724FAFEE7D4D4C3
S11310B000BE7047F0B503AF2DE9000B4EF60850A3
S11310C0CEF200004FF47001C0F8801040F200012D
S11310D0C0F20001016000200024FFF7FDF9FFF7D2
S11310E025FE01200125FFF7F7F940F60450C4F26C
S11310F000004FF42541048020F8041C40F2000154
S113110040F24008C1F6FE71C0F20008416001F5EA
S11311108061D8F80060816046F22011C4F20001B9
S11311204FF480520A8005808EB1D8F80400354609
S1131130041D03E0013D04F10C0408D0607900288B
S1131140F8D154E90101091A00F098F8F2E7D8F847
S11311500890B9F1000F13D0D8F80C004D4600F1F7
S1131160080403E0013D04F1100409D0607900286B
S1131170F8D154E902022168121A00F083F8F1E769
S1131180FFF7BEFDFFF77AFE0220FFF7A5F99EB137
S1131190D8F804004FF48075041D03E0013E04F107
S11311A00C0409D06079B5EB002FF7D154E90101A3
S11311B0091A00F063F8F1E7B9F1000F16D0D8F876
S11311C00C004FF4807600F1080404E0B9F1010941
S11311D004F110040AD06079B6EB002FF6D154E97B
S11311E002022168121A00F04DF8EFE740F2A4441D
S11311F0C1F6FE74204600F021F8204600F034F8D1
S113120041F20E6041F20E61C0F20000C0F2000132
S1131210091A8C10012C06DB051F00BF55F8040FBA
S11312208047013CFAD1FFF7D9FE0020BDE8000B4E
S1131230BDE8F04000F000B87047D4D4D0B502AF98
S11312400549064A044600F01DF8054805492044AE
S113125000F014F8D0BD00BF4004000000000000FE
S113126000000000000000000249401A0249086022
S1131270704700BF08000000A004FE1F0A460021BA
S113128000F00AB8D0B502AF00239A4208BFD0BD1F
S1131290CC5CC4540133F8E700239A4208BF70477A
S11312A0C1540133F9E7D4D4000001000000000068
S11312B0000000000000000000000000000000002A
S11312C000000000000000000000FFFFDFDF00005E
S11312D0000000000000000000000000000000000A
S11312E000000000000000000200000000000100F7
S11312F0000000000080000005FFDF000000000087
S113130000000000A81200002804FE1FE8120000DC
S113131080150000004000000400000000400000B0
S11313200800000000400000090000000000010364
S1131330000100000000010008010000000001009D
S113134009010000000001000A010000000001067C
S11313500202000000000106030200000000010672
S11313600402000000000106050200001040000015
S113137006020000000C011A08020000000C011A09
S113138009020000000C011A0A020000000C011AF4
S11313900B020000000001090C020000000001091A
S11313A00D020000000C011A0E02000000000100F2
S11313B0000300000500000004030000000C0111FC
S11313C005030000000C011106030000000C0111CC
S11313D007030000000C011108030000000C0111B8
S11313E009030000000C01110A03000004000000BE
S11313F000040000000C011701040000000C011798
S113140002040000040000000304000005000000C2
S113141004040000000C011705040000000C01176F
S11314200604000000000113070400004000010549
S11314300804000040000105090400000000010642
S11314400A040000000001060B040000000001066D
S11314500C040000040000000D040000000001065C
S11314600E04000000000113000500000000011339
S11314700105000004000000030500000400000052
S113148004050000004000000505000000400000C5
S11314900605000000800000070500000080000031
S11314A008050000000401070B0500000004010703
S11314B00C05000004000000030600000400000006
S11314C00B060000000001050D06000000000105E8
S11314D00E060000000C011700070000000C0117A5
S11314E001070000000C011702070000000C01179F
S11314F003070000000C011704070000000C01178B
S11315000507000000400000060700000000011469
S11315100707000000400000080700000400000066
S1131520000800000400000001080000040000009E
S1131530020800000400000003080000040000008A
S11315400408000004000000050800000400000076
S1131550070900000400000008090000000001144D
S1131560000B000000000114010B00004B00000000
S11315701413000000000000020403040404D4D483
S1131580C506000095090000A1090000AD0900008E
S1131590B9090000F1090000110A0000490A00001D
S11315A0790B0000890B0000CD0B0000E10B00005B
S11315B0F10B0000000001000200080010002000F0
S11315C000000206362E322E30004275696C7420FB
S11315D0776974682052656E65736173204164761F
S11315E0616E63656420466C657869626C6520533E
S11315F06F667477617265205061636B6167652003
S111160076657273696F6E20362E322E3000BE
S90310A14B
